:020000040800F2
:10000000280E002035020008852600087D260008FD
:1000100081260008A90A0008D52B0008000000006E
:100020000000000000000000000000009D0100082A
:10003000D90A000800000000E101000819270008A3
:100040004F0200084F0200084F0200084F0200084C
:100050004F0200084F0200084F0200084F0200083C
:100060004F0200084F0200084F020008AD0A0008C6
:100070004F0200084F0200084F0200084F0200081C
:100080004F0200084F0200084F0200084F0200080C
:100090004F0200084F0200084F020008111000082C
:1000A0004F0200084F0200084F0200084F020008EC
:1000B00085270008952700084F0200084F02000816
:1000C0004F0200084F0200084F0200084F020008CC
:1000D0004F020008652B00084F020008752B00082E
:1000E0004F0200084F0200084F02000800F002F81B
:1000F00000F045F80AA090E8000C82448344AAF17D
:100100000107DA4501D100F03AF8AFF2090EBAE87A
:100110000F0013F0010F18BFFB1A43F0010318473B
:100120005835000078350000103A24BF78C878C1EF
:10013000FAD8520724BF30C830C144BF04680C60ED
:10014000704700000023002400250026103A28BF35
:1001500078C1FBD8520728BF30C148BF0B60704739
:10016000642900F0FF80782900F03881732900F0BD
:10017000CE83002070471FB51FBD10B510BD00F025
:10018000E5FB1146FFF7F7FF02F0A4FD00F003FCCA
:1001900003B4FFF7F2FF03BC02F041FD224B1968E4
:1001A0000868B0E8F00F80F30988BFF36F8F4FF055
:1001B000000080F311884EF00D0E70470000000023
:1001C00006480068006880F3088862B661B6BFF32D
:1001D0004F8FBFF36F8F00DF00BF00BF08ED00E05F
:1001E000EFF30980BFF36F8F0F4B1A6820E9F00F10
:1001F000106008B54FF0500080F31188BFF34F8FA7
:10020000BFF36F8F02F012FF4FF0000080F31188F0
:10021000BDE8084019680868B0E8F00F80F3098865
:10022000BFF36F8F704700BF28000020EFF30580F9
:10023000704700000948804709480047FEE7FEE78D
:10024000FEE7FEE7FEE7FEE7FEE7FEE7FEE7FEE786
:1002500004480549054A064B704700002D27000851
:10026000ED00000828080020280E0020280A0020A1
:10027000280A0020704700000FB4044910B503AAF3
:10028000029800F049FB10BC5DF814FB74000020DC
:100290000FB41CB50C0007AA009001D02044401EEA
:1002A000074B7B4469460190069800F0FEFA002C4B
:1002B00003D06946002000F00BFB1CBC5DF814FB6A
:1002C0003506000070B5044685690068C10601D591
:1002D000302600E02026C00707D070BDD4E90121F8
:1002E00030469047206A401C20626D1EF6D570BDD6
:1002F00070B5044685690078C00707D170BDD4E9A0
:10030000012120209047206A401C20626D1EF6D5F6
:1003100070BD70B50C460546012A05D028788006C8
:1003200000D5EA69002302E0012305E05B1C93424B
:1003300002D2E05C0028F9D1A869E618C01AA861C9
:10034000286A184428622846FFF7BCFF04E0D5E974
:10035000012114F8010B9047B442F8D32846FFF767
:10036000C7FF70BD2DE9F0410646002410687529CD
:10037000314616A510D0AFF30080002802DA4042C3
:1003800013A507E031688A0701D512A502E04907E5
:1003900004D511A5012401E0AFF3008000210A2259
:1003A00006F1240709E0B0FBF2FCB0FBF2F302FB1C
:1003B0001C00303078541846491C0028F3D12346DD
:1003C0002A463046BDE8F04100F010BA00000000B7
:1003D0002D0000002B0000002000000070B5044636
:1003E0000D4621461068AFF300802188090502D52B
:1003F0000F4A7A4402E00E4A7A440E32002104F198
:10040000240305E000F00F060009965D5E54491CC8
:100410000028F7D120780023000704D5702D02D0E2
:1004200009B1022311322046BDE8704000F0DEB968
:10043000463200002DE9F05F894604464FF0000A7D
:10044000DFF824B1FB44C0F820A02046E1688847CB
:1004500000287DD0252806D0D4E901219047206AC4
:10046000401C2062F1E700255F462046E16888478E
:100470002028064607DB312E05D2B81910F8200CCB
:1004800008B10543F1E7A80701D525F00405C4F834
:100490001CA00027C4F818A02A2E09D0304602F06C
:1004A000B7FB38B304EB8708303EC8F8186019E092
:1004B00059F8041B204604EB87029161E1688847E4
:1004C000012F064618D1E069002820DA25F0200522
:1004D0001DE0D8F8180000EB800006EB4000303833
:1004E000C8F818002046E1688847064602F090FBED
:1004F0000028EED1012F0AD02E2E08D12046E16827
:1005000088477F1C0646022F45F02005C4DBA06902
:10051000002803DA404245F00105A061E80701D058
:1005200025F01005A6B1A6F14100192802D8203601
:1005300045F400654A463146204625604D46FFF7A2
:100540000FFE60B1012807D0ED1D25F0070000E087
:1005500007E000F1080978E705F1040975E730467E
:100560007AE7206ABDE8F09F1C32000030B50546EE
:100570000B462A4613F8014B12F8010B08B1A042B2
:10058000F8D01CB1002802D06D1CF1E7284630BD20
:1005900010B5431C02E010F8011B71B18107FAD1BC
:1005A0004FF0013202C88C1A8C4314EAC211F9D000
:1005B000C01A0A0603D0C01E10BDC01A10BD0A041E
:1005C00001D0801E10BD0902FCD0401E10BD40EAC3
:1005D000010370B59B072ED14FF00136042A2AD3B0
:1005E00008C810C99D1B9D43121F15EAC61517D0D8
:1005F000D8B2E1B2401A50EA056110D198B2A1B266
:10060000401A50EA05410AD123F07F4024F07F418F
:10061000401A50EA052102D1180EA0EB146070BDFB
:10062000A342DBD018BA21BA884201D9012070BD9B
:100630004FF0FF3070BD0AB9002070BD10F8013BCB
:1006400011F8014B63B1A3420AD1521E08D010F831
:10065000013B11F8014B1BB1A34201D1521EEDD158
:10066000181B70BD032A40F2308010F0030C00F01C
:10067000158011F8013BBCF1020F624498BF11F8DC
:1006800001CB00F8013B38BF11F8013BA2F1040295
:1006900098BF00F801CB38BF00F8013B11F003030D
:1006A00000F02580083AC0F0088051F8043B083A71
:1006B00051F804CBA0E80810F5E7121D5CBF51F813
:1006C000043B40F8043BAFF30080D20724BF11F88D
:1006D000013B11F801CB48BF11F8012B24BF00F8F2
:1006E000013B00F801CB48BF00F8012B704710B563
:1006F000203AC0F00B80B1E81850203AA0E818501A
:10070000B1E81850A0E81850BFF4F5AF5FEA027CDA
:1007100024BFB1E81850A0E8185044BF18C918C049
:10072000BDE810405FEA827C24BF51F8043B40F8EA
:10073000043B08BF7047D20728BF31F8023B48BFCF
:1007400011F8012B28BF20F8023B48BF00F8012B0D
:1007500070474FF000020429C0F0128010F0030C23
:1007600000F01B80CCF1040CBCF1020F18BF00F8A4
:10077000012BA8BF20F8022BA1EB0C0100F00DB853
:100780005FEAC17C24BF00F8012B00F8012B48BFB1
:1007900000F8012B70474FF0000200B51346944655
:1007A0009646203922BFA0E80C50A0E80C50B1F1C9
:1007B0002001BFF4F7AF090728BFA0E80C5048BFDD
:1007C0000CC05DF804EB890028BF40F8042B08BF7B
:1007D000704748BF20F8022B11F0804F18BF00F877
:1007E000012B704770477047704770472DE9F047FD
:1007F0000D4699469246044600F124080168880691
:1008000004D5E06921F01001216000E00120A84238
:1008100001DD471B00E00027A1697A1902EB0900FE
:10082000081AA0612078C00602D42046FFF74AFDCE
:10083000002608E0D4E901211AF806009047206A52
:10084000401C761C20624E45F4DB2078C0060AD599
:100850002046FFF737FD06E0D4E90121302090471C
:10086000206A401C2062381EA7F10107F4DC07E073
:10087000D4E9012118F805009047206A401C206245
:10088000281EA5F10105F3DC2046FFF731FD207895
:10089000000602D50220BDE8F0870120FBE700003A
:1008A00001694A1C02610878704700B58FB0CDE934
:1008B00001310021059105497944CDE90310114624
:1008C0006846FFF7B7FD0FB000BD0000E5FFFFFF72
:1008D0000A6802F8010B0A607047D1E900239A42C6
:1008E00002D2531C0B601070704710B5436913B1EE
:1008F000AFF3008001E0FFF70CFD012010BD12787E
:1009000000F124010A7000224A700122EDE711680B
:100910004FF0FF32E9E70000074B70B50D467B440E
:10092000FFF7C3FF0446284600F008F810B14FF067
:10093000FF3070BD204670BD97230000007B00F0A3
:100940008000704700487047C80700207546FFF7D1
:10095000F9FFAE4605006946534620F0070085467C
:1009600018B020B5FFF774FCBDE820404FF000063A
:100970004FF000074FF000084FF0000B21F0070187
:10098000AC46ACE8C009ACE8C009ACE8C009ACE8CA
:10099000C0098D46704710B50446AFF3008020466D
:1009A000BDE81040FFF7F4BB2DE9FF4F81B00546CD
:1009B000904699462C46102004F8010BA346641C6F
:1009C000002004F8010B042004F8010B4D2004F86A
:1009D000010B512004F8010B542004F8010B04F81A
:1009E000010B042004F8010B0226B8F1000F05D01A
:1009F0004046FFF7CDFD08B146F08006B9F1000F83
:100A000005D04846FFF7C4FD08B146F0400604F89B
:100A1000016B002004F8010B3C2004F8010B029844
:100A2000FFF7B6FD87B2380A04F8010B04F8017B22
:100A30003A4620460299FFF715FE3C4406F0800036
:100A400088B14046FFF7A4FD1FFA80FA4FEA1A204A
:100A500004F8010B04F801AB524641462046FFF76B
:100A600001FE544400BF06F0400088B14846FFF73D
:100A70008FFD1FFA80FA4FEA1A2004F8010B04F8E0
:100A800001AB524649462046FFF7ECFD544400BFF7
:100A9000601B801E80B2009000988BF80000601BE5
:100AA00080B205B0BDE8F08F00BFFEE708480068DF
:100AB00000F0020050B101200649087000BF044850
:100AC000406840F002000249486000BF70470000E3
:100AD0000000024088000020704700002DE9F04728
:100AE000ADF5856D044624B900200DF5856DBDE892
:100AF000F08740F25B7066A369A24FF480710090AA
:100B0000CAA8FFF7C5FB41F288336CA2CAA92046E8
:100B100000F0D0F930B9607910B16AA0FFF7ACFBF2
:100B20000020E2E74FF4FA6000F0E6FA69A36AA257
:100B300040213AA8FFF7ACFB68A367A240212AA88E
:100B4000FFF7A6FB65A364A240211AA8FFF7A0FB4C
:100B50001AAB2AAA3AA94AA8FFF726FF05466079E8
:100B600098B129465EA0FFF787FB64A0FFF784FBDE
:100B7000002705E04AA8C15D64A0FFF77DFB7F1C4C
:100B8000AF42F7DB63A0FFF777FB2B4662A24FF47F
:100B90008071CAA8FFF77CFB40F6B83362A2CAA9ED
:100BA000204600F087F930B9607910B15FA0FFF7F7
:100BB00063FB002099E74FF4FA7000F09DFA41F2D0
:100BC00088332A464AA9206801F0EBFC4FF4FA600A
:100BD00000F092FA00F0B0FC06464FF0000837E053
:100BE00057480078002833D0607918B35548B0F8DA
:100BF0000090B9F1000F1ADD4A4653490AA8FFF7E1
:100C000031FD02A90AA801F03FFD82464FA0FFF77F
:100C100033FB002705E002A8C15D3CA0FFF72CFBD9
:100C20007F1C5745F7DB3BA0FFF726FB00BF02F018
:100C3000DFF900BF9DF80800202809D19DF80900C0
:100C4000022805D19DF80B0010B94FF0010806E00D
:100C500000F072FC801B41F288318842C0D300BF93
:100C6000B8F1000F0CD00320207100F065FCC4F82F
:100C70000802607910B138A0FFF7FEFA012034E7CE
:100C8000607910B138A0FFF7F7FA00202DE70000D7
:100C900062726F6B65722E656D71782E696F0000E0
:100CA00041542B43495053544152543D22544350D4
:100CB000222C222573222C2564000000434F4E4E27
:100CC00045435400544350C1ACBDD3CAA7B0DC0D5A
:100CD0000A000000726A0000257300000000000096
:100CE0004D51545420434F4E4E454354B0FCB3A491
:100CF000B6C83A2025640D0A00000000B0FCC4DA32
:100D0000C8DD28484558293A2000000025303258CF
:100D1000200000000D0A000041542B434950534568
:100D20004E443D25640000003E000000B7A2CBCD3C
:100D3000B3A4B6C8C9E8D6C3CAA7B0DC0D0A000080
:100D40007F0000208000002068050020CAD5B5BDC6
:100D5000CFECD3A63A2000004D515454C1ACBDD3C2
:100D6000B3C9B9A60D0A00004D515454C1ACBDD34E
:100D7000CAA7B0DCA3ACCEB4CAD5B5BD434F4E4E66
:100D800041434B0D0A00000070B5A2B004460D4669
:100D900016460CB105B116B9002022B070BD2B4625
:100DA0000FA2802102A80096FFF772FA43F698235B
:100DB00010A202A9204600F07DF848B1022020715F
:100DC000607918B129460EA0FFF756FA0120E4E732
:100DD000607918B129460FA0FFF74EFA0020DCE732
:100DE00041542B43574A41503D222573222C222542
:100DF000732200005749464920474F54204950006C
:100E000057694669C1ACBDD3B3C9B9A63A202573A9
:100E10000D0A000057694669C1ACBDD3CAA7B0DC52
:100E20003A2025730D0A000070B504460E4615469B
:100E300004B10EB9002070BD2660657100202071DC
:100E4000C4F808024FF40071A01DFFF782FC15B131
:100E50000AA0FFF711FA41F288330EA20EA1204634
:100E600000F028F828B915B10EA0FFF705FA002008
:100E7000E1E70120207100BFDDE700004553503855
:100E8000323636B3F5CABCBBAFBFAACABC2E2E2EB3
:100E90000D0A00004F4B000041542B43574D4F4467
:100EA000453D3100C9E8D6C3C4A3CABDCAA7B0DC5A
:100EB0000D0A00002DE9F041A0B004460D4616468B
:100EC0001F4604B11DB9002020B0BDE8F0814FF4E9
:100ED0000071A01DFFF73DFC022214A12846FFF778
:100EE00076FB30B92B4612A280216846FFF7D0F975
:100EF00005E02B460EA280216846FFF7C9F9684637
:100F0000FFF746FB1FFA80F83B46424669462068D9
:100F100001F047FB607918B1694607A0FFF7ACF90B
:100F20003A463146204600F00DF8CDE74154000026
:100F300025730D0A00000000B7A2CBCD3A2025731F
:100F40000D0A00002DE9F04104460E46154600F05A
:100F5000F3FA074628E01D480078002821D040F227
:100F6000FF121B49A01DFFF77DFB02F041F831463F
:100F7000A01DFFF7FBFA40B1607918B1314615A00A
:100F8000FFF77AF90120BDE8F08117A1A01DFFF756
:100F9000EDFA30B1607910B115A0FFF76DF90020BE
:100FA000F1E70A2000F0A8F800F0C6FAC01BA8423A
:100FB000D1D3607910B112A0FFF75EF94FF4007140
:100FC000A01DFFF7C6FB0020DDE700007F0000202A
:100FD00068050020CAD5B5BDD4A4C6DACFECD3A627
:100FE0003A2025730D0A00004552524F520000006E
:100FF000CAD5B5BDB4EDCEF3CFECD3A60D0A000033
:10100000B5C8B4FDCFECD3A6B3ACCAB10D0A00008D
:1010100010B540210A4800F087FA28B9402000F0B6
:10102000E5F84020074908608021054800F07CFA77
:1010300028B9802000F0DAF880200249086010BD4D
:10104000000C01401404014070B50446002594F8DA
:101050002100022803D00420A063012548E0206875
:10106000006820F00E00216808602068006820F009
:101070000100216808601F492068884201D10120D1
:1010800026E01C4914312068884201D110201FE05D
:10109000184928312068884201D1801518E0154987
:1010A0003C312068884201D1801411E0114950314F
:1010B0002068884202D14FF4803009E00D49643144
:1010C0002068884202D14FF4801001E04FF0807018
:1010D000084908394860012084F8210000BF002039
:1010E00084F8200000BF606B10B12046616B884718
:1010F000284670BD0800024010B50446A0B201F0B9
:10110000ADFD10BD2DE9F041054600F015FA06468B
:1011100032480068301A0A2801D2BDE8F0812F4811
:101120000660402D01D0802D56D180212C4800F042
:10113000FBF9074640212A4800F0F6F947EA40004B
:10114000C4B22848007820B3012813D0022830D038
:1011500003283DD1022C05D123480088401C224998
:10116000088006E0012C04D11F480088401E1E495B
:1011700008802DE0032C05D11B480088401C1A492B
:10118000088005E024B918480088401E16490880E8
:101190001EE0012C05D114480088401C124908802B
:1011A00006E0022C04D110480088401E0E49088039
:1011B0000EE02CB90C480088401C0B49088006E062
:1011C000032C04D108480088401E0749088000BF4E
:1011D00000BF0448047000BF00BF9EE790000020DD
:1011E000000C01408C0000201800002010B50446BF
:1011F00004480068204020B1024804602046FFF700
:1012000081FF10BD140401402DE9F8470346002278
:1012100094466EE14FF0010808FA02F4D1F800801C
:1012200008EA0400A0427DD1DFF8DCA2D1F80480F6
:10123000A8EB0A09D0453AD014DCB8F1030F50D01E
:1012400009DCB8F1000F31D0B8F1010F1CD0B8F1B2
:10125000020F49D120E0B8F1110F18D0B8F1120FE8
:1012600042D11EE0B9F5881F25D006DCB9F5803FD4
:1012700020D0B9F5801F37D11AE0B9F5001F18D07A
:10128000B9F5041F30D117E0D1F80CC02DE0D1F82A
:101290000C8008F1040C28E0D1F80C8008F1080C4F
:1012A00023E0D1F80C8008F10C0C1EE000BF00BF59
:1012B00000BF00BF00BF00BFD1F80880B8F1000F29
:1012C00002D14FF0040C0BE0D1F80880B8F1010F07
:1012D00003D14FF0080C1C6102E04FF0080C5C6178
:1012E00003E04FF0000C00E000BF00BFFF2801D872
:1012F000984601E003F104084646FF2802D84FEA69
:10130000820803E0A2F108084FEA88084746D6F8A9
:1013100000804FF00F0909FA07F928EA09080CFACA
:1013200007F900E088E048EA0908C6F80080D1F82B
:10133000048008F08058B8F1805F7DD100BFDFF8ED
:10134000CC81D8F8188048F00108DFF8C091C9F8BE
:101350001880C846D8F8188008F00108CDF8008039
:1013600000BF00BF4FEAB9384FEA920958F8295038
:101370004FEA82784FEA18794FF00F0808FA09F817
:1013800025EA0805DFF88881434502D14FF00008BF
:1013900016E0DFF88081434502D14FF001080FE0ED
:1013A000DFF87481434502D14FF0020808E0DFF80E
:1013B0006C81434502D14FF0030801E04FF004086F
:1013C0004FEA82794FEA197908FA09F848EA0505DF
:1013D000DFF84C814FEA920948F82950D1F804808F
:1013E00008F48038B8F5803F0AD1DFF83881D8F8A2
:1013F000008048EA0008DFF82C91C9F8008009E075
:10140000DFF82081D8F8008028EA0008DFF814917E
:10141000C9F80080D1F8048008F40038B8F5003F1E
:1014200010D1DFF8008108F10408D8F8008048EAFC
:101430000008DFF8F09000E05AE009F10409C9F86B
:1014400000800DE0DFF8DC8008F10408D8F80080A7
:1014500028EA0008DFF8CC9009F10409C9F80080F7
:10146000D1F8048008F48018B8F5801F0ED1DFF899
:10147000B48008F10808D8F8008048EA0008DFF8CE
:10148000A49009F10809C9F800800DE0DFF8948004
:1014900008F10808D8F8008028EA0008DFF88490EE
:1014A00009F10809C9F80080D1F8048008F400188F
:1014B000B8F5001F0ED1DFF86C8008F10C08D8F8E1
:1014C000008048EA0008DFF85C9009F10C09C9F8CF
:1014D00000800DE0DFF84C8008F10C08D8F800809F
:1014E00028EA0008DFF83C9009F10C09C9F80080EF
:1014F000521CD1F8008028FA02F8B8F1000F7FF4EE
:1015000089AEBDE8F887000000001110001002400D
:1015100000080140000C014000100140001401408F
:101520000800014000040140024693680B400BB1E3
:10153000012000E00020704701480068704700006B
:1015400068000020034800680349097808440149FD
:1015500008607047680000207000002010B508483F
:10156000006840F0100006490860032000F080F891
:101570000F2000F007F800F02BF8002010BD00004D
:101580000020024070B504460E4800784FF47A718E
:10159000B1FBF0F00C490968B1FBF0F5284600F00A
:1015A000F9FB08B1012070BD102C07D200222146A2
:1015B000501E00F01EF80548046001E00120F2E72B
:1015C0000020F0E770000020240000206C000020C4
:1015D000704701460846002809DB00F01F0301227E
:1015E0009A4043099B0003F1E023C3F8002100BFA8
:1015F00070472DE9F05F80460D461646002701F042
:10160000EBFA074639462A46334601F00700C0F197
:10161000070ABAF1040F02D94FF0040A01E0C0F141
:10162000070AD14600F1040ABAF1070F02D24FF0BF
:10163000000A01E0A0F1030AD4464FF0010A0AFAB9
:1016400009FAAAF1010A0AEA020A0AFA0CFA4FF0A8
:10165000010B0BFA0CFBABF1010B0BEA030B4AEA93
:101660000B042146404601F0BFFABDE8F09F0000A0
:1016700000BF00F00702064B19684FF6FF03194040
:10168000044B0B4343EA0221014B196000BF704732
:101690000CED00E00000FA0570B504460D460CB9EB
:1016A000012070BD5A48006800F00700A8420ED221
:1016B0005748006820F0070028435549086008464D
:1016C000006800F00700A84201D00120E9E7207877
:1016D00000F0020002281DD1207800F00400042848
:1016E00005D14C48406840F4E0604A4948602078A1
:1016F00000F00800082805D14648406840F46050D2
:10170000444948604348406820F0F000A16808431D
:1017100040494860207800F0010078B360680128F3
:1017200006D13C48006800F4003090B90120B8E7C9
:101730006068022806D13748006800F0007040B9A0
:101740000120AEE73348006800F0020008B901202C
:10175000A7E73048406820F00300616808432D493E
:101760004860FFF7E9FE064609E0FFF7E5FE801B4B
:1017700041F28831884202D9032092E707E02548E8
:10178000406800F00C006168B0EB810FEDD120489B
:10179000006800F00700A8420ED91D48006820F03C
:1017A000070028431A4908600846006800F007004F
:1017B000A84201D0012074E7207800F0040004283A
:1017C00007D11448406820F4E060E16808431149FB
:1017D0004860207800F00800082808D10D484068CB
:1017E00020F46050216940EAC1000A49486000F0D5
:1017F0003FF808494968C1F30311074A515CC840E2
:101800000649086006480068FFF7BCFE002048E76C
:10181000002002400010024024360008240000206E
:101820006C00002001480068704700002400002080
:1018300000B5FFF7F7FF04494968C1F30221034AE5
:10184000515CC84000BD0000001002403436000862
:1018500000B5FFF7E7FF04494968C1F3C221034A15
:10186000515CC84000BD0000001002403436000842
:10187000F0B585B00FF26C0C9CE8E01001A8A0E870
:10188000E0101CA52D6800950021002200230024F3
:101890000020194D696801F00C05F5B1042D02D046
:1018A000082D19D101E0154819E001ADC1F38346B7
:1018B000AC5D01F4803555B10F4D6D68C5F3404501
:1018C0001DF805200D4D6543B5FBF2F302E00C4D0C
:1018D00004FB05F3184602E000BF0A4800BF00BF42
:1018E00005B0F0BD02030405060708090A0B0C0D3C
:1018F0000E0F10100102000000100240001BB70084
:1019000000093D0000127A00F8B504460CB9012028
:10191000F8BD207800F00100002878D0F848406831
:1019200000F00C0004280CD0F548406800F00C00D2
:10193000082811D1F248406800F48030B0F5803FAB
:101940000AD1EF48006800F4003000285FD06068DA
:1019500000285CD10120DBE700BF6068B0F5803F64
:1019600006D1E748006840F48030E549086028E087
:10197000606858B9E248006820F48030E0490860A7
:101980000846006820F4802008601AE06068B0F51E
:10199000A02F0BD1DA48006840F48020D8490860B5
:1019A0000846006840F4803008600AE0D4480068C7
:1019B00020F48030D24908600846006820F4802076
:1019C000086000BF606888B1FFF7B6FD054606E015
:1019D000FFF7B2FD401B642801D9032098E7C848EF
:1019E000006800F400300028F2D010E0FFF7A4FDFA
:1019F000054606E0FFF7A0FD401B642801D903203F
:101A000086E7BF48006800F400300028F2D1207853
:101A100000F00200022857D1B948406800F00C00DD
:101A200050B1B748406800F00C00082818D1B448FD
:101A3000406800F4803098B9B148006800F00200B6
:101A400020B12069012801D0012061E7AC4800687D
:101A500020F0F800616940EAC100A949086033E05C
:101A60002069E8B10120A7490860FFF765FD054638
:101A700006E0FFF761FD401B022801D9032047E77C
:101A80009F48006800F002000028F2D09C480068DF
:101A900020F0F800616940EAC1009949086013E04C
:101AA000002098490860FFF747FD054606E0FFF76C
:101AB00043FD401B022801D9032029E79048006814
:101AC00000F002000028F2D1207800F00800082879
:101AD0002DD1A069B8B101208B490860FFF72CFD1A
:101AE000054606E0FFF728FD401B022801D9032028
:101AF0000EE78348406A00F002000028F2D001207F
:101B000000F0F6FD13E000207F490860FFF714FDA8
:101B1000054606E0FFF710FD401B022801D903200F
:101B2000F6E67748406A00F002000028F2D12078FB
:101B300000F00400042873D100277148C06900F048
:101B4000805070B900BF6E48C06940F080506C4949
:101B5000C8610846C06900F08050009000BF00BF17
:101B600001276A48006800F48070B0B967480068CF
:101B700040F4807065490860FFF7DEFC054606E02A
:101B8000FFF7DAFC401B642801D90320C0E65F4858
:101B9000006800F480700028F2D000BFE0680128DF
:101BA00006D15748006A40F001005549086227E015
:101BB000E06858B95248006A20F0010050490862B4
:101BC0000846006A20F00400086219E0E068052871
:101BD0000BD14B48006A40F00400494908620846AE
:101BE000006A40F0010008620AE04548006A20F0FF
:101BF0000100434908620846006A20F004000862B8
:101C000000BFE068A0B1FFF797FC054609E0FFF7C9
:101C100093FC401B41F28831884202D9032077E6C9
:101C200022E03748006A00F002000028EFD012E0FE
:101C3000FFF782FC054608E0FFF77EFC401B41F2FF
:101C40008831884201D9032062E62D48006A00F0FD
:101C500002000028F0D1012F05D12948C06920F0E9
:101C600080502749C86100BFE069C8B32448406874
:101C700000F00C00082860D0E069022848D100205C
:101C800020490866FFF758FC054606E0FFF754FCBC
:101C9000401B022801D903203AE61948006800F0E9
:101CA00000700028F2D1206AB0F5803F07D11448B7
:101CB000406820F40030A168084311494860D4E925
:101CC000080108430E49496821F4741108430C497E
:101CD000486001200B490866FFF72EFC054607E027
:101CE0003DE0FFF729FC401B022801D903200FE645
:101CF0000348006800F000700028F2D02FE00000D8
:101D00000010024000004242800442420070004045
:101D1000002014490866FFF70FFC054606E0FFF7B0
:101D20000BFC401B022801D90320F1E50E48006896
:101D300000F000700028F2D111E0E069012800D124
:101D4000E6E50948466806F48031206A814204D1FC
:101D500006F47011606A814201D00120D8E50020AC
:101D6000D6E500000000424200100240042808D1DD
:101D70004FF0E021096941F004014FF0E0221161C8
:101D800007E04FF0E021096921F004014FF0E02263
:101D90001161704770B504462546681EB0F1807F1A
:101DA00001D301200FE0681E4FF0E02148610F21B0
:101DB0004FF0FF3000F018FF00204FF0E021886165
:101DC00007200861002070BD704770472DE9F04181
:101DD00004462068B0F1804F7ED14E48007820B193
:101DE00001281DD002281AD14AE000204A49086083
:101DF000012048490870002048490968486247485E
:101E00000068006A20F400504449096808624348A9
:101E10000068006A40F4005040490968086275E0B3
:101E20000C213E4800F05AF93D4908603B480068E3
:101E3000006A20F400503949096808623748006890
:101E4000006A3649096808623548006832490968FD
:101E5000884207D9324800682F490968401A314939
:101E6000086009E02C4800684FF6FF71081A2C49F9
:101E7000096808442B49086002202649087045E09B
:101E80000C21264800F02AF9274908600846006816
:101E900021490968884207D9234800681E49096812
:101EA000401A2249086009E01B4800684FF6FF719C
:101EB000081A1D49096808441C4908601B48006845
:101EC00001F0D0FA05462946194801F009FA1949E6
:101ED00008601648006800E019E001F0C3FA064601
:101EE0001048006801F0BEFA0746134901F0CEFA27
:101EF0000546314601F0F4F9104908600A480068C7
:101F00000549086003200349087000BF00BFBDE811
:101F1000F0810000B8000020A40000208807002005
:101F2000A8000020B0000020B4000020AC00002079
:101F300000247449BC0000200000C842C0000020FA
:101F400010B5044620680069C0F34000D8B120688D
:101F5000C068C0F34000B0B16FF0020021680861B2
:101F6000012020772068806900F0030018B1204626
:101F7000FFF72CFF05E0204600F0ADF8204600F00A
:101F8000ABF80020207720680069C0F38000D8B14A
:101F90002068C068C0F38000B0B16FF00400216811
:101FA0000861022020772068806900F4407018B131
:101FB0002046FFF70BFF05E0204600F08CF8204696
:101FC00000F08AF80020207720680069C0F3C00084
:101FD000D8B12068C068C0F3C000B0B16FF008008D
:101FE00021680861042020772068C06900F00300A0
:101FF00018B12046FFF7EAFE05E0204600F06BF836
:10200000204600F069F80020207720680069C0F3BE
:102010000010D8B12068C068C0F30010B0B16FF0F4
:10202000100021680861082020772068C06900F44A
:10203000407018B12046FFF7C9FE05E0204600F0C9
:102040004AF8204600F048F8002020772068006910
:1020500000F0010058B12068C06800F0010030B104
:102060006FF0010021680861204600F036F8206812
:102070000069C0F3C01058B12068C068C0F3C01038
:1020800030B16FF08000216808612046FFF79CFEA8
:1020900020680069C0F3801058B12068C068C0F3A0
:1020A000801030B16FF0400021680861204600F0D8
:1020B0002EF820680069C0F3401058B12068C0684D
:1020C000C0F3401030B16FF0200021680861204655
:1020D000FFF77BFE10BD7047704770470246002037
:1020E00031B1042907D0082908D00C290CD108E007
:1020F0001368586B09E01368986B06E01368D86B97
:1021000003E01368186C00E000BF00BF7047704721
:1021100070477047704770472DE9F04704462068C4
:1021200005682068C668206847694FF00008C14606
:1021300005F00F08B8F1000F0AD105F0200038B102
:1021400006F0200020B1204600F07EFBBDE8F087BD
:10215000B8F1000F6ED007F0010018B906F49070C6
:10216000002867D005F0010030B106F4807018B186
:10217000E06B40F00100E06305F0040030B107F0CF
:10218000010018B1E06B40F00200E06305F00200CE
:1021900030B107F0010018B1E06B40F00400E063DB
:1021A00005F0080030B107F0010018B1E06B40F015
:1021B0000800E063E06B00283BD005F0200028B168
:1021C00006F0200010B1204600F03EFB2068406978
:1021D000C0F38019E06B00F0080010B9B9F1000FEE
:1021E00022D0204600F0EEFA2068406900F040005E
:1021F000B0B12068406920F0400021684861606B00
:1022000050B11748616B4863606BFEF71DFF80B1EA
:10221000606B416B88470CE02046216D884708E0E1
:102220002046216D884704E02046216D8847002024
:10223000E0638BE705F0800030B106F0800018B154
:10224000204600F025FC81E705F0400030B106F0A3
:10225000400018B1204600F0C5FA77E700BF75E7E7
:10226000B127000810B504460CB9012010BDA069C3
:1022700000B100E000BF94F8390060B9002084F894
:102280003800204600F0BEFA606E08B91548606656
:102290002046616E8847242084F839002068C06891
:1022A00020F400502168C860204600F021FB20681F
:1022B000006920F49040216808612068406920F09E
:1022C0002A00216848612068C06840F400502168F5
:1022D000C8600020E063202084F8390084F83A00C8
:1022E0000020C3E7E922000810B586B00446504933
:1022F000206888424AD100BF00BF4E48806940F044
:1023000004004C4988610846806900F0040001908F
:1023100000BF00BF00BF00BF00BF0846806940F09B
:10232000040088610846806900F00400019000BF45
:1023300000BF00BF00BF00BF0846806940F4804076
:1023400088610846806900F48040019000BF00BFAA
:1023500000BF481502900220039001200490032042
:10236000059002A93448FEF74FFF4FF480600290B9
:102370000020039002A93048FEF746FF2520FFF712
:1023800028F9052211462520FFF733F92B4920684B
:1023900088424AD100BF00BF2648806940F008004B
:1023A000244988610846806900F00800019000BF58
:1023B00000BF00BF00BF00BF0846806940F00800B2
:1023C00088610846806900F00800019000BF00BFE6
:1023D00000BF00BF00BF0846C06940F48020C8614C
:1023E0000846C06900F48020019000BF00BF00BF14
:1023F000081502900220039001200490032005900C
:1024000002A90F48FEF700FF4FF400600290002081
:10241000039002A90A48FEF7F7FE2720FFF7D9F834
:10242000042205212720FFF7E4F806B010BD0000C4
:102430000038014000100240000801400048004000
:10244000000C014010B5034693F83A0020282FD124
:1024500001B10AB9012010BD00BF93F8380001286E
:1024600001D10220F7E7012083F8380000BF99620C
:102470009A85DA850020D863222083F83A0000BFCD
:10248000002083F8380000BF1868C06840F48070EE
:102490001C68E0601868406940F001001C686061D9
:1024A0001868C06840F020001C68E0600020D2E797
:1024B0000220D0E710B504462F49206888423BD15E
:1024C0002E48008800F4004088BB2C48008800F4A7
:1024D000804070B12A4800780A2803D0002027499C
:1024E000088024E02548008840F400402349088003
:1024F0001DE0234800780D2806D12048008840F4CC
:1025000080401E49088012E01D4800781B49098858
:10251000C1F30D011B4A505418480088401C17494C
:10252000088008460088C72801DD002008800122B5
:1025300013491548FFF786FF14492068884219D1CE
:1025400013480088C8280DDA124800781049098815
:10255000C1F30D01104A50540D480088401C0C492D
:10256000088002E000200A490880012209490B483E
:10257000FFF768FF10BD0000003801407800002020
:102580007A000020A004002030060020004800400F
:102590007C0000207E000020680500209C060020B2
:1025A00070472DE9F84304460D4616461F464FF086
:1025B000000994F8390020285CD105B116B9012032
:1025C000BDE8F88300BF94F83800012801D102204B
:1025D000F6E7012084F8380000BF0020E0632120E6
:1025E00084F83900FEF7A8FF8146A684E6842BE034
:1025F000E08C401EE084A068B0F5805F16D14B46A9
:10260000002280212046009700F076FA08B10320CE
:10261000D6E7A846B8F80000C0F308002168486073
:10262000206908B9AD1C0FE06D1C0DE04B4600227F
:1026300080212046009700F05FFA08B10320BFE731
:1026400015F8010B21684860E08C0028D0D14B467A
:10265000002240212046009700F04EFA08B10320E6
:10266000AEE7202084F8390000BF002084F838004D
:1026700000BFA5E70220A3E77047704700BFFEE751
:1026800000BFFEE7704700002DE9F04107460E4607
:1026900015A13846FDF76AFF044614B90020BDE8CD
:1026A000F081641D002507E02078303805EB8501B6
:1026B00000EB410085B2641C2078302802DB2078D2
:1026C0003928F1DD20783A2801D00020E7E7641CA2
:1026D000002D06DD2A4621463046FDF7C3FF284679
:1026E000DDE70020DBE700002B4950442C00000010
:1026F00008B508490968C9084FF47A72B1FBF2F1CC
:102700004143009100BF00BF00994A1E009200297A
:10271000F9D108BD2400002010B5FEF713FF00F02A
:10272000E9FC012801D000F0CBFC10BD1148006885
:1027300040F001000F490860084640680E49084013
:102740000C494860084600680C490840094908607F
:102750000846006820F4802008600846406820F49D
:10276000FE0048604FF41F008860C80304490860F9
:1027700070470000001002400000FFF8FFFFF6FE67
:1027800008ED00E010B50248FFF7DAFB10BD0000CD
:102790008807002005480068006900F0010020B1AA
:1027A0006FF00100014909680861704708070020BF
:1027B00070B505466C6A0020E085E0842046216DF6
:1027C000884770BD0168C96821F490710268D160C2
:1027D0000168496921F0010102685161202180F8F6
:1027E0003A10704710B504462068C06820F04000D9
:1027F0002168C860202084F839002046616C884731
:10280000002010BD084901640849416408498164F9
:102810000849C1640849016508494165084981655D
:102820000849C165704700007B260008792600082A
:10283000A1250008B524000817210008112100086F
:10284000152100081321000870B5044694F83A00D9
:1028500022284AD1A068B0F5805F13D1A56A20690B
:1028600040B920684068C0F308002880A06A801C36
:10287000A06219E020684068C0B22880A06A401CAD
:10288000A06211E0206938B920684068C1B2A26A2C
:10289000501CA062117007E02068406800F07F01C2
:1028A000A26A501CA0621170E08D401E80B2E085CB
:1028B000C8B92068C06820F020002168C86020687E
:1028C000C06820F480702168C8602068406920F0EA
:1028D000010021684861202084F83A002046E16C1C
:1028E0008847002070BD0020FCE70220FAE70000C6
:1028F00070B504462168096921F44051E26811432A
:10290000226811612269A1681143626941EA0205E6
:102910002168C96841F20C62914329432268D16061
:102920002168496921F44071A2691143226851610B
:10293000564A2168914254D1FEF78AFF00EBC0014C
:1029400001EB001162689200B1FBF2F100EBC002F2
:1029500002EB001263689B00B2FBF3F26423B2FB4C
:10296000F3F202EBC20303EB0212A1EB820132226B
:1029700002EB01116422B1FBF2F101F0F00100EB76
:10298000C00202EB001263689B00B2FBF3F2642307
:10299000B2FBF3F201EB021200EBC00101EB0011FC
:1029A00063689B00B1FBF3F100EBC00303EB001382
:1029B0006668B600B3FBF6F36426B3FBF6F303EBED
:1029C000C30606EB0313A1EB8301322303EB0111D2
:1029D0006423B1FBF3F101F00F011144226891600F
:1029E00053E0FEF725FF00EBC00101EB0011626828
:1029F0009200B1FBF2F100EBC00202EB001263683F
:102A00009B00B2FBF3F26423B2FBF3F202EBC203CE
:102A100003EB0212A1EB8201322202EB01116422CC
:102A2000B1FBF2F101F0F00100EBC00202EB001289
:102A300063689B00B2FBF3F26423B2FBF3F201EB99
:102A4000021200EBC00101EB001163689B00B1FBB7
:102A5000F3F100EBC00303EB00136668B600B3FBB1
:102A6000F6F36426B3FBF6F303EBC30606EB03139E
:102A7000A1EB8301322303EB01116423B1FBF3F1DA
:102A800001F00F0111442268916070BD00380140CF
:102A9000014691F8390021282CD18868B0F5805F73
:102AA0000FD10A6A1088C0F308000B6858600869E3
:102AB00018B9086A801C086209E0086A401C0862AC
:102AC00005E00B6A581C086218780B685860C88CBF
:102AD000401E80B2C88458B90868C06820F08000E1
:102AE0000B68D8600868C06840F040000B68D86088
:102AF000002070470220FCE72DE9F04104460D4616
:102B000017469846069E21E0701CF8B12EB1FEF7DC
:102B100013FDA0EB0800B04218D92068C06820F46B
:102B2000D0702168C8602068406920F001002168E9
:102B30004861202084F8390084F83A0000BF002062
:102B400084F8380000BF0320BDE8F08120680068E9
:102B50002840A84201D1012000E00020B842D3D093
:102B60000020F1E710B50248FFF7D6FA10BD0000CB
:102B70003006002008B513480068006800F0100017
:102B800010281AD100BF002000900E48006800688D
:102B900000900C4800684068009000BF00BF012012
:102BA00009490870094800880949088007480088D1
:102BB00040F400400549088008BD0248FFF7ACFA20
:102BC00000BFF9E79C0600207F0000207C00002069
:102BD0008000002000BFFEE702480068C0F302202A
:102BE000704700000CED00E010B5002804DB0A0778
:102BF000130E054A135406E00A07140E034A00F0A8
:102C00000F031B1FD45410BD00E400E018ED00E0DA
:102C100030380A2801D2012070470020704700BFD9
:102C20007047000070B504460420FFF79FF80A487B
:102C3000046025464FF47A7045434FF0E020006968
:102C400040F002004FF0E02108610846456100694C
:102C500040F00100086170BD8400002010B50446FA
:102C60004FF47A7104FB01F000F002F810BD00008F
:102C700070B5034600224FF0E02675690D4E3668A8
:102C800003FB06F44FF0E026B16910E04FF0E026B8
:102C9000B06988420BD0884202D20E1A324402E058
:102CA0002E1A0E4432440146A24200D300E0EDE762
:102CB00000BF70BD8400002000BF054A126802F00A
:102CC0004002002AF9D0C2B2014B1B1D1A607047A6
:102CD0000038014008B5FEF741FC4FF4801000F0C9
:102CE000FDF800BF4148806940F001003F4988611C
:102CF0000846806900F00100009000BF00BF00BFDF
:102D00003B49486820F0E06040F00070486000BF38
:102D10004820FFF787FF4FF4E13000F013F935A0AA
:102D2000FDF7AAFA4FF4E13000F028F935A0FDF7DD
:102D3000A3FA012238493948FEF776F898B138A04D
:102D4000FDF79AFA4FF47A70FEF7D6F939A23CA152
:102D50003248FEF719F830B13CA0FDF78DFA4FF478
:102D60007A70FEF7C9F93FE03C48008800F4004063
:102D700040B33A480088C0F30D04394A214639A0CF
:102D8000FDF77AFA3DA13648FDF7F0FB18B123486C
:102D9000FDF7A4FE0EE02148007903280AD01F4861
:102DA0000079012806D140F6B83336A22C491B48D9
:102DB000FEF780F8C8212A48FDF7CBFC0020274900
:102DC000088000BF3048007858B130480488002C93
:102DD00004DD2F4A21462FA0FDF74EFA00F008F936
:102DE00000BF0A20FEF788F9BEE70000001002408D
:102DF00000000140CFB5CDB3C6F4B6AF2E2E2E0DD8
:102E00000A000000B4AEBFDA32B3F5CABCBBAFCD26
:102E1000EAB3C90D0A0000009C060020C40000208F
:102E200045535038323636B3F5CABCBBAFB3C9B917
:102E3000A60D0A00313131313132323232320000E6
:102E400054502D4C494E4B5F5759470057694669BE
:102E5000C1ACBDD3B3C9B9A60D0A000078000020EB
:102E6000A00400200D0ACAD5B5BDB4AEBFDA31CA80
:102E7000FDBEDD3A20252E2A730D0A004D51545413
:102E8000000000004F4B00007F0000208000002069
:102E9000680500200D0ACAD5B5BDB4AEBFDA33CA85
:102EA000FDBEDD3A20252E2A730D0A000948006870
:102EB000006808B9012000E0002020B14FF0FF3089
:102EC0000549086005E003480068C06800680249D9
:102ED000086070472C0000205800002030B58FB0EB
:102EE00005460124282105A8FDF755FC1421684654
:102EF000FDF751FC0120059000040690002007908A
:102F000002200C90C1030D910E9505A8FEF7FCFC64
:102F100004460CB100BFFEE70F2000900220019094
:102F2000002002904FF48060039000200490022162
:102F30006846FEF7B1FB04460CB100BFFEE70FB0D8
:102F400030BD000010B5044609480A49086008462B
:102F5000446000218160C160016181610C21416197
:102F6000FFF780F9012204490248FFF76BFA10BD10
:102F700000380140300600207A00002010B50446D9
:102F80001548164908600846446000218160C16008
:102F9000016181610C214161FFF764F90F4800680C
:102FA000C06840F010000D490968C8600B4800680F
:102FB000C06840F0200009490968C860002008493D
:102FC0000880084908700849088001220749034819
:102FD000FFF738FA10BD0000004800409C060020B2
:102FE0007C0000207F000020800000207E00002068
:102FF00010B5002007490880074908700749088074
:10300000C8210748FDF7C7FB012206490648FFF71C
:1030100019FA10BD7C0000207F00002080000020F5
:10302000680500207E0000209C0600201F480068E4
:1030300018B101201E49086036E000201C490860D4
:1030400000BF1C480068B0FA80F0C0F11F0101EB1E
:103050008100194A52F8200008B1012000E0002048
:1030600050B900BF502080F31188BFF34F8FBFF3DA
:103070006F8F00BF00BFFEE700BF01EB81020E4B68
:1030800003EB820042685268426000F10802436824
:10309000934201D1C26842604268D268074B1A600D
:1030A00000BF00BF184600687047000064000020A1
:1030B0004C000020400000204C030020280000208D
:1030C00010B500BF502080F31188BFF34F8FBFF3BE
:1030D0006F8F00BF00F01EF818B14FF08050044908
:1030E000086000BF002080F3118800BF10BD000001
:1030F00004ED00E00549096809B9012005E004492B
:10310000096809B9022000E000207047440000204F
:10311000640000202DE9F0414FF000086548006888
:1031200000287DD164480068451C634805601DBBCC
:1031300000BF62480068006808B9012000E0002074
:1031400050B900BF502080F31188BFF34F8FBFF3F9
:103150006F8F00BF00BFFEE75848076858480068F7
:10316000564908605648076056480068401C554953
:103170000860FFF79BFE00BF5348006885427ED37E
:1031800000BF4E480068006808B9012000E0002038
:1031900020B14FF0FF304C4908606FE047480068AD
:1031A000C068C4686668B54202D24748066065E0F8
:1031B00000BF6069D4E902128A60D4E902214A6042
:1031C000211D42688A4201D1E168416000226261AA
:1031D0000168491E016000BFA06AA0B100BFA06ADB
:1031E000D4E907128A60D4E907214A6004F1180182
:1031F00042688A4201D1216A41600022A2620168CC
:10320000491E016000BF00BF94F82C1001208840C7
:103210002E49096808432D49086000BFE16A00E0B3
:103220003FE001EB81012A4A02EB81014868A0607E
:103230008268E260211D826851608160E16A01EB71
:103240008101234A02EB81026261E16A01EB8101A3
:103250001F4A52F82110491CE26A02EB82021C4B01
:1032600043F8221000BF00BF1A49E06A0968C96A22
:10327000884286D94FF0010883E700E000BF154877
:103280000068C06A00EB8000114951F82000012855
:1032900001D94FF001081048006808B14FF001084B
:1032A00004E00E480068401C0C4908604046BDE838
:1032B000F0810000640000203C0000202C00002071
:1032C0003000002050000020580000204000002066
:1032D0004C030020280000204C0000204800002063
:1032E0004FF47F0C1CEAD0121EBF1CEAD11392EAE5
:1032F0000C0F93EA0C0F00F0858090EA010F48BF95
:1033000042F4807240F4000C41F400002CF07F4144
:1033100020F07F4000B58142A2EB03020FF2081CAF
:10332000ACEB504EC0F100009EF800E04FEA4E0EAC
:1033300000FB0EFC38BF49004FEA2C1C02F5FA02D4
:103340000CFB0EF34FEACE1E4FEA112C4FEAC121BF
:103350000EEB635E42EB22420EFB0CFC4FEA1C5369
:1033600000FB03114FEA112C4FEA01310EFB0CFC5C
:103370004FEADC4C00FB0C11C14228BF09184CEB92
:1033800003335DF804EB10EB410143EBC250B2F59F
:103390007C0F38BF704729D512F0F00F1CBF00F129
:1033A000C04000F00040704700818283848586879A
:1033B00088898B8C8D8E8F919293959697999A9CF4
:1033C0009D9FA0A2A3A5A7A8AAACAEB0B2B3B5B763
:1033D000B9BCBEC0C2C5C7C9CCCED1D4D7D9DCDF39
:1033E000E2E6E9ECF0F3F7FAFE0000004FEA400CE9
:1033F0000CF1807CBCF17E4F28BF7047B0F1C0401B
:1034000000F00BB990EA010F0CEAD11348BF42F467
:103410008072624538BF634507D213F47F0F16D020
:1034200080EA010000F00040704710B500F0AFF8EE
:10343000097EFC3E00F005B880EA010000F0004083
:10344000704780EA010000F0004000F0E6B812F496
:103450007F0F04BF0248704780EA010000F0DDB82A
:103460000000C07FB0FA80F310FA03F2C3F19D03AD
:103470000AD0D90501EB1220530638BF704700F17E
:10348000010008BF20F00100704700004FF47F0CDE
:103490001CEAD0121EBF1CEAD11392EA0C0F93EA69
:1034A0000C0F00F0478090EA010F48BF42F4807291
:1034B0004FF0004C4CEA00204CEA012102EB0302E1
:1034C000A0FB0113A2F50002002918BF43F001037D
:1034D0005B0028BF4FEA330342EB22425FEA132C22
:1034E0004CEBC2502EBFBCEB436FB2F57C0F704764
:1034F0004FEA036CBCF1004F08BF20F00100B2F5A9
:103500007C0F38BF70470BD582F0FF0212F5803F69
:10351000C8BF704700F1C040D8BF00F000407047FE
:1035200000F5000C5FEA4C0C48BF7047B0F1C0409A
:1035300000F073B890EA010F0CEAD11348BF42F4CF
:103540008072624538BF634504D280EA010000F012
:103550000040704710B500F01AF800BF8900013E26
:1035600000F007B800F009B85FEA410C5FEA1C6C94
:1035700008D080EA010000F050B85FEA400C5FEA32
:103580001C6CF6D14FF00040A0F5800070470EF1A2
:10359000020E2EF0030E5EF8044B244204D44FEAD0
:1035A0004102B2F17F4F11D84FEA4003B3F17F4F90
:1035B0000CD80ED14FEAD07CB2F17F4F0CEB4C0C03
:1035C0000CF1020C08BF4CEBD17C04E04FF0080C6E
:1035D00001E04FEAD17C0CEB4C0324FA03F404F035
:1035E0000704B4F1040C06D20EEB840CBDE81040C5
:1035F0004CF0010C6047DFE80CF0070802024FF0C6
:103600000040A0F5800010BD0846420018BFD2F16E
:10361000807288BF00F0004010BDFF2141EAD05009
:10362000C005704700000000000000000102030414
:10363000060708090000000001020304303132339C
:1036400034353637383941424344454640305800D6
:103650003031323334353637383961626364656608
:103660004030780004000008000000000000000264
:103670000001000010000000983600080000002043
:10368000C4000000280100085C370008C4000020C6
:10369000640D00004401000800000000000000006C
:1036A000000000000000000000000000000000001A
:1036B0000500000000000000000000000024F400ED
:1036C00000000000000000000000000000000000FA
:1036D00000000000000000000000000000000000EA
:1036E00000000000000000000000000000000000DA
:1036F00000000000000000000B00000000000000BF
:1037000000000000100000000100000000000000A8
:1037100000000000000000000000000000000000A9
:103720000000000000000000000000000000000099
:103730000000000001000000000000000000000088
:103740000000000000000000000000000000000079
:0C3750000000000000000000000000006D
:04000005080000ED02
:00000001FF
